:020000040800F2
:20000000005000202977000871770008717700087177000871770008717700080000000018
:2000200000000000000000000000000071770008717700080000000071770008F36600088F
:20004000717700087177000871770008717700087177000871770008A1740008A7740008C0
:20006000AD740008B3740008B9740008717700087177000871770008717700087177000843
:2000800071770008717700087177000871770008717700087177000871770008BF74000895
:2000A0007177000881380008717700089538000899380008AD380008C1380008CD310008FD
:2000C000D9310008E5310008F1310008717700087177000819730008317300084D730008DE
:2000E000D574000871770008717700080000000000000000000000000000000000000000CF
:2001000000000000000000005FF808F1034613F8012B002AFBD1181A0138704710B5054CE1
:20012000237833B9044B13B10448AFF300800123237010BD0C01002000000000BC8D0008B5
:2001400008B5034B1BB103490348AFF3008008BD0000000010010020BC8D0008704790F988
:200160002C30002BBABF90F82900C00900207047024690F82C3013F040001CBF92F8290031
:20018000C0F380107047024690F82C3013F020001CBF92F82900C0F340107047024690F8FE
:2001A0002C3013F010001CBF92F82900C0F300107047024690F82C3013F008001CBF92F82C
:2001C0002900C0F3C0007047024690F82C3013F004001CBF92F82900C0F3800070470246D9
:2001E00090F82D3013F010001CBF92F82A00C0F300107047024690F82D3013F008001CBFEB
:2002000092F82A00C0F3C000704700000122014B1A707047C003002010B50446034B0449C3
:200220000360044807F01FFF204610BD04960008D48D00080807002010B50446FFF7ECFF9D
:200240002046302103F0A9FB204610BD012A02D1016000207047022A05D0032AF9D0002AC6
:20026000F7D10260F5E70B680360F2E703681847012A02D1016000207047022A05D0032A9B
:20028000F9D0002AF7D10260F5E70B680360F2E7036808681847836810B5044613B1032299
:2002A00001469847204610BDCBB2322B08D80E4A01F4E06152F823301943C0F8881070479D
:2002C00001F0C002C02A0CD1CF2B0AD8074B01F03F0253F82220044B01F4E06153F8223095
:2002E000EAE74FF0FF31E8E76C9C00082C9C0008CBB2322B08D80E4A01F4E06152F823302A
:200300001943C0F88410704701F0C002C02A0CD1CF2B0AD8074B01F03F0253F82220044BC8
:2003200001F4E06153F82230EAE74FF0FF31E8E76C9C00082C9C0008036810B51B6B0446FB
:2003400098474A2808D10423237123682046D3F8E0309847012010BD0020FCE770B5067B76
:20036000044616B1FFF7E8FF70BD012303730369ABB1D0E905230B490B4807F074FE206986
:2003800002F0BBF9D4E904512846FFF7B1FF2846A169FFF789FF3146284602F0D3FB204690
:2003A000E0E700BFE48D00080807002038B52C2007F01AFB01280446084D0CD12B78012B56
:2003C00003D00749074807F03BFE00210E2007F0D1FA2C7038BD0121F8E700BFBC0300203A
:2003E000F28D00087002002010B5064B42F210705C7907F0EDF92146BDE81040082007F0ED
:20040000EDB900BF2801002038B5074D6C79044484F3080442F2107007F0DAF92146082030
:2004200007F0DCF96C7138BD2801002038B50D4A0D4913780D4D013303F00303CC5C13707E
:20044000AA7A42F210701444A4F11403EC2B28BF002407F0BDF92146282007F0BFF9AC7275
:2004600038BD00BF59020020000000202801002000212D2007F07EBA01212D2007F07ABAAD
:2004800070B505460C460026AE4205DB2146BDE870402D2007F06EBAFFF7EAFF4FF4C87022
:2004A00007F0DAFAFFF7E8FFC82007F0D5FA0136EAE700000022044B83F8402083F83F20B8
:2004C00083F83E20704700BF180200200F4982B0ADF8040091F83E001E2815D891F840306D
:2004E000BDF80420013021F813201F220133DBB2B3FBF2F281F83E000120C2EB42129B1A84
:2005000081F8403002B070470020FBE71802002007B5ADF804000198FFF7D8FFD8B90F4999
:20052000BDF8042091F8403021F813201F220133DBB2B3FBF2F0C0EB40101B1A81F84030F2
:2005400091F83F300133DBB2B3FBF2F2C2EB42129B1A81F83F3003B05DF804FB1802002071
:2005600037B5144B1B7823B903B0BDE83040FFF7A1BF114C8DF80400A5788DF80510EB0615
:2005800042BFE37843F00803E3700198FFF79EFF68B9AA0742BFE37843F00103E370EB0798
:2005A00005D5019803B0BDE83040FFF7B1BF03B030BD00BFBD0300202801002037B5104ACC
:2005C00092F83E30D3B192F83F40013B611CC9B282F83F1012F8140002EB440465781F2426
:2005E000B1FBF4F482F83E302B46C4EB4414091B82F83F1040EA032003B030BD1846F9E7EF
:200600001802002038B50024114B124DC3F8D440A3F8D840022115F8010B013407F04CF9A5
:20062000072CF7D100240C4D002115F8010B013407F042F9082CF7D10024084D022115F8FC
:20064000010B013407F038F90C2CF7D138BD00BF38010020DC970008D4970008C8970008CF
:2006600008B507F0C1F9003818BF012008BD0000D222064B00219A700A229A710522DA71FE
:20068000FF2299725A71DA72704700BF280100202DE9F041D0F814E004460F4616461D46F7
:2006A000BEF1000F04D0F446BDE8F041007C6047406818B94FF0FF30BDE8F081217C02F0E9
:2006C0005FF86068394603681B689847606802F073F90028EED12A46217C606802F069F979
:2006E00060682A4603683146DB699847281A18BF4FF0FF30E0E7002307B58DF807300DF1D6
:2007000007020123FFF7C4FF431C18BF9DF8070003B05DF804FB10B51446FFF7ECFF431CBB
:200720000ED0C117C4F12002A4F12003E04001FA02F2104321FA03F3184300F0010010BDE8
:200740000020FCE708B5032200210C30FFF7E3FF08BD10B500F10C04012103222046FFF751
:20076000DAFF014620B905222046FFF7D4FF10BD0020FCE708B5142931D8DFE801F00B1183
:20078000131517303030303030191C1E20222426282B2E00002280210C30FFF7BCFF08BD25
:2007A0000122F8E70222F6E70322F4E70422F2E700229021F0E70122FBE70222F9E703225F
:2007C000F7E70422F5E70522F3E70722F1E700229121E1E702221821DEE70622E9E7002061
:2007E000DDE7036810B59B680446984728B1A42104F10C00FFF77FFF10BD4FF0FF30FBE7A9
:2008000008B501210C30FFF776FF4011431E5842584108BD08B501210C30FFF76CFF4011DB
:20082000831E5842584108BD38B500F10C05044648212846FFF75FFF492184F8280028463F
:20084000FFF759FF4A2184F829002846FFF753FF94F8293094F828201B0284F82A0043EADB
:200860000243C0B20021184338BD032108B50C30FFF741FFC0B208BD272108B50C30FFF78F
:200880003AFFC0F3810008BD08B527210C30FFF732FF431C0CBF002000F0030008BD08B5FF
:2008A00062210C30FFF727FF431C0CBF002000F01F0008BD642108B50C30FFF71CFF00F0C0
:2008C000030008BD08B524210C30FFF714FF431C1FBF00F0070000EB800000EB800080007F
:2008E0000CBF002000F6282008BD162108B50C30FFF701FF00F0070008BD08B5132977D8E0
:20090000DFE801F00A182A4A4C7676767676765E6A6C6E70787A7C7E82210C30FFF7EBFEBD
:2009200000F01F0000EB800000EB8000800000F2DC505EE083210C30FFF7DDFE431C57D0BF
:2009400000F07F031846462B4FEA8303184419DC400000F5FA704CE084210C30FFF7CBFEDB
:2009600000F07F03462B05DC03EB83035B0003F5FA703EE0A3F1470298B2102A4FEA830344
:20098000184402D88000C83804E000EB80008000A0F5E15080B22CE08521CCE786210C3092
:2009A000FFF7A9FE411C23D000F01F00192837D000EB800000EB8000800000F5AF6018E0A1
:2009C00092210C30FFF797FE00F01F0000EB800000EB80008000BCE79321F2E79421F0E77C
:2009E0009521EEE796210C30FFF785FE421CEBD1002008BD9721F6E79921F4E79A21F2E743
:200A00006A210C30FFF777FE431CF1D000F0070000EB800000EB8000800000F62820E8E72A
:200A20004FF49660E5E738B500F10C0500212846FFF761FE012104462846FFF75CFE04F0C0
:200A40001F0400F01F0040EA042038BD38B5036805469B68984708B9002038BD0C35342130
:200A60002846FFF748FE044635212846FFF743FE621CF1D0431CEFD0240204F4F85420435D
:200A800080B2EAE773B5866904460D468DF8072036B10123007C0DF10702B04702B070BD8F
:200AA0004068B0B1217C01F06BFE6068294603681B6898476068012203680DF107015B6813
:200AC0009847606801F078FF003818BF01204042E4E74FF0FF30E1E710B500F10C04692104
:200AE0002046FFF708FE431C07D000F0F9026921204642F00102FFF7C5FF10BD032938B5AE
:200B000004460D4602D9042914D038BD0C3469212046FFF7F0FD431CF7D000F0C80242EA38
:200B2000051242F005026921204602F0FD02FFF7A9FFEAE7BDE83840FFF7CEBF08B5FFF7C2
:200B400097FC01210148FFF7D9FF08BD8C03002010B51348FFF7F6FD00B31148FFF741FE0B
:200B600004462D2006F040FF631E1F2B01460AD80120FFF785FC0A48FFF742FE70B1BDE8CF
:200B80001040FFF7DBBFA4F12103202B01D80220EFE7423C222CEED80320EAE710BD00BF8E
:200BA0008C0300206F4BF0B45C6805680173002C00F09F80002D00F09C80AE786A4A013EF6
:200BC00028789278042E38D8DFE806F02F03272B330057061BD4002800F08B80022940F0EB
:200BE0009E80A0F120035F2B0FD90A280DD009280BD0D42809D0082807D0B52805D0B6282A
:200C000003D0B72801D0B42805D1012187E0A120022940F08480022181E05606DBD5A220A4
:200C2000F6E75506D7D5A320F2E75206D3D5A420EEE75306CFD5A520EAE7C12852B229D121
:200C4000012918D0002AE3DA93F8D66093F8DD2093F8D7706FBB324393F8D8602EBB93F8AA
:200C6000DB30A3BB002A4CD1A0F14103192BB2D82030C0B22FE093F8DB60002A86F00106E3
:200C800083F8DB6083F8DA1049DA93F8D62093F8DD60DDE7002A9EDA93F8D66093F8DD201E
:200CA000324393F8D760002ED6D0A0F14106192E01D968788FE793F8DB3063B95AB10129F3
:200CC00049D1422815D0492829D1D12027E0A0F14103192B02D8022921D196E7002A3FF45E
:200CE0007AAF012907D100F0FD032C2B01D0202813D1F0BC704703297FF46DAF422817D90D
:200D00000DE001290ED100F0FD032C2BF1D02028EFD04228EDD04928D7D00028E9D0234645
:200D2000F0BC184703297FF456AF42280ED0CAD82C2806D02E280CD02028EED1F0BCFFF715
:200D400075BB6FF00900F0BCFFF75EBBF0BCFFF7FFBE0A20F7E70329BDD14228F6D0EBD92B
:200D6000B1E700BF380100202801002038B5037B04460D46032B44D8DFE803F002708198E3
:200D800000293ED003689A78504B1AB101211A4482F8D41093F8DA1093F8D62091BB93F88E
:200DA000D81079B36AB140F20111A3F8DA1093F8DC1019B993F8D710002938D193F8DA10D9
:200DC00041B993F8D71011B993F8D81011B10121A3F8DA1093F8DC10002934D00AB31A681E
:200DE00032B193F8DA0093F8DC1000B901B1904701212046FFF7D6FE06F02CFE002360609D
:200E0000A36038BD93F8DC100029D7D193F8D7100029D3D05AB993F8DA10002951D083F807
:200E2000DD20002283F8DA2083F8DC20D7E740F20111A3F8DC1093F8DA100029C1D093F864
:200E4000DC100029CBD193F8D71019B993F8D8100029C3D00121A3F8DC10BFE706F0FAFD32
:200E60006368C01AB0F5967F05D902212046BDE83840FFF797BE002DC3D10321F6E7002959
:200E8000FBD006F0E7FD6368C01AB0F5967FB8D906F0E0FDA368C01A6428B2D90221204665
:200EA000FFF780FE06F0D6FDA060AAE703689A7822B1064B1344002283F8D4200021216039
:200EC000D4E70121A3F8DA10BDE700BF38010020FF222DE9F04F7D4B85B01A7006F0BAFD4A
:200EE0007B4CD4F8D030C01A102840F2AA800026784B794DDFF8E491029303954FF0000B7F
:200F0000C846DA46029B012113F8017B3846029306F0D2FC0021384606F02CFD704B019379
:200F2000019B13F8010B0193FFF79AFB012380F0010111F0FF0103FA0BF200F085809E4279
:200F40006FEA020209D1BBF1040F01BF5F4B93F800C00CEA020C83F800C00AEA020A4FF068
:200F6000000C5B4B9A68424500F0AB800CF1010CBCF10A0F03F11403F4D140B9544A9168EB
:200F8000002971D001300A2802F11402F7D10BF1010BBBF1070F08F11808C1D1039B01217E
:200FA00003F801AB38460393013606F0E3FC0021384606F081FC082E09F103099ED14FF06E
:200FC000000B4FF00109DFF81C81474E3F4FDFF800A118F8010BFFF743FBBBF1070F80F02C
:200FE0000101C9B24FD82B78002949D003F07F032B70A4460023DCF80820B2425BD00133FC
:201000000A2B0CF1140CF6D140B923469A68002A46D001300A2803F11403F7D10BF1010BD5
:201020005FFA8BFBBBF10C0F06F1030605F10105CFD1FF22284B1A7206F00CFD244BC3F825
:20104000D00005B0BDE8F08F012ED2B209D1BBF1040F01BF1D4B93F800C042EA0C0C83F869
:2010600000C042EA0A0A7AE7142358432218117501210830C2F808802044FFF777FE86E7A5
:2010800063F07F03B4E7ABF10802D2B23B7809FA02F219B123EA02033B70AAE71343FBE7BC
:2010A000142301215843231808309E601A752044FFF75CFEB2E758B2142303FB00A00830D8
:2010C000F6E7142303FB0C400830D6E70400002038010020D49700085A0200202097000892
:2010E000DC970008C8970008FC96000870B504460D461646FFF7FFFA431C0CD0012303FA0B
:2011000006F2024329462046D2B2FFF7BBFCB0FA80F0400970BD0020FCE708B500221021E9
:201120000C30FFF7E3FF08BD38B51248FFF70AFBB0B11048FFF764FB054688B90D48FFF7AF
:2011400050FB1428044611DCFFF796F9012C08DC02210848FFF7D2FC14B90648FFF7DDFF17
:2011600038BD03210348FFF7C9FCF9E7FFF780F92946F7E78C03002008B500210348FFF7E6
:20118000BDFCBDE80840FFF7CFBF00BF8C03002008B5002268210C30FFF7A8FF08BD08B5F4
:2011A000022230210C30FFF7A1FF08BD08B5002230210C30FFF79AFF08BD08B50322302130
:2011C0000C30FFF793FF08BD08B5012230210C30FFF78CFF08BD08B5042230210C30FFF76D
:2011E00085FF08BD08B513292ED8DFE801F00A101214162D2D2D2D2D2D181B1D1F212325B3
:20120000272A002280210C30FFF770FF08BD0122F8E70222F6E70322F4E70422F2E7002230
:201220009021F0E70122FBE70222F9E70322F7E70422F5E70522F3E70722F1E70022912142
:20124000E1E702221821DEE70020DFE708B5002226210C30FFF74AFF08BD70B504460025C4
:2012600000F10C06FF2248213046FFF70BFCFF224921304684F82850FFF704FCFF224A21F7
:20128000304684F82950FFF7FDFB84F82A5070BD70B56426B1FBF6F306FB13139BB20C46C8
:2012A00033B132461649174806F0DDFE002070BD40F62723994203D840F628221249F2E70C
:2012C00040F6E442914201D91049ECE700F10C0524212846FFF70FFA431CE7D0A4F6282429
:2012E000B4FBF6F400F0F80044EA000224212846D2B2FFF7C7FBB0FA80F04009D7E700BF6E
:20130000058E000808070020278E00085F8E000870B504460D461646FFF7EDF9431C0DD01B
:20132000012303FA06F220EA020229462046D2B2FFF7A8FBB0FA80F0400970BD0020FCE701
:2013400008B5012230210C30FFF7E2FF08BD08B5002230210C30FFF7DBFF08BD08B50422A0
:2013600030210C30FFF7D4FF08BD08B5032230210C30FFF7CDFF08BD08B5022230210C30EE
:20138000FFF7C6FF08BD08B5002268210C30FFF7BFFF08BD38B5036804465B6D0D46984714
:2013A00028B12D492D4806F05EFE002038BD142DFBD801A353F825F00D1400081B1400088A
:2013C0001F1400082314000827140008AB130008AB130008AB130008AB130008AB13000872
:2013E000AB1300082B1400083114000835140008391400083D1400084114000845140008D6
:20140000491400084F140008551400080022802104F10C00FFF77CFFC8E70122F7E7022282
:20142000F5E70322F3E70422F1E700229021EFE70122FBE70222F9E70322F7E70422F5E71C
:201440000522F3E70722F1E700229121E0E702221821DDE70622E9E7978E0008080700207A
:201460002DE9F8430C460B462C49161E05462C4A2C4818BF0A462C4906F0F5FD14F0FF070C
:2014800010D005F10C0740213846FFF734F9CEB344EA0002D2B23846402185F82B20FFF78F
:2014A000F1FA074614F47F4F13D005F10C08412140464FEA1429FFF71EF936B349EA0009A1
:2014C0005FFA89F24121404685F82C20FFF7DAFA074314F47F0F10D005F10C08422140460A
:2014E000240CFFF708F9A6B10443E2B24221404685F82D20FFF7C6FA0743B7FA87F040096F
:20150000BDE8F88320EA0402C4E720EA0902D2B2D8E720EA0402D2B2E8E700BFE18E0008FF
:20152000E88E000808070020F08E000808B511460022FFF795FF08BD08B511460122FFF7C6
:201540008FFF08BD38B500F10C040D4620462721FFF7D1F8431C0CD000F0F30242EA8502B7
:2015600027212046D2B2FFF78DFAB0FA80F0400938BD0020FCE738B500F10C040D462046BA
:201580002721FFF7B8F8431C0BD000F0FC0045EA000227212046FFF775FAB0FA80F0400990
:2015A00038BD0020FCE7102938B50D4601D9002038BD00F10C0462212046FFF79CF8431CF8
:2015C000F5D000F0E00045EA000262212046FFF759FAB0FA80F04009EAE7052938B50D4671
:2015E00001D9002038BD00F10C0464212046FFF782F8431CF5D000F0FC0045EA00026421DA
:201600002046FFF73FFAB0FA80F04009EAE738B500F10C050C4628461621FFF76CF8431C62
:201620000CD000F0F80004F00702024316212846FFF728FAB0FA80F0400938BD0020FCE78C
:2016400038B500F10C050C4628468321FFF753F8431C12D0A4F5FA739AB2B2F52F7F00F01E
:20166000800018D80A22B4FBF2F102FB114189B229B11249124806F0F6FC002038BDB3FB78
:20168000F2F2024383212846D2B2FFF7FBF9B0FA80F04009F2E7A4F2C4439AB2B2F5A07FB6
:2016A000EBD81422B4FBF2F102FB1144A4B2002CDFD1B3FBF2F24732E3E700BF008F0008F0
:2016C0000807002038B500F10C050C4628468421FFF711F8431C12D0A4F5FA739AB2B2F54E
:2016E0002F7F00F0800018D80A22B4FBF2F102FB114189B229B11B491B4806F0B4FC00202D
:2017000038BDB3FBF2F2024384212846D2B2FFF7B9F9B0FA80F04009F2E7A4F2C4439AB299
:20172000B2F5A07F0BD81422B4FBF2F102FB114189B20029DFD1B3FBF2F24732E3E7A4F567
:20174000C8639AB2B2F5E16FD9D86422B4FBF2F102FB1144A4B2002CCDD1B3FBF2F25832C4
:20176000D1E700BF228F00080807002038B500F10C050C4628468521FEF7BDFF431C12D0C3
:20178000A4F5FA739AB2B2F52F7F00F0800018D80A22B4FBF2F102FB114189B229B11249C5
:2017A000124806F060FC002038BDB3FBF2F2024385212846D2B2FFF765F9B0FA80F0400942
:2017C000F2E7A4F2C4439AB2B2F51B7FEBD81422B4FBF2F102FB1144A4B2002CDFD1B3FB49
:2017E000F2F24732E3E700BF228F00080807002070B56426B1FBF6F306FB13139BB20C4611
:201800002BB132462049214806F02DFC0DE0B1F5966F2BD0B1F5AF6F09D24FF4AF634FF4B9
:2018200096621B49194806F01EFC002070BD40F67462914201D91749E5E700F10C05862100
:201840002846FEF758FF421CEFD0A4F5AF64B4FBF6F400F0E00044EA0002D2B286212846D3
:20186000FFF710F9B0FA80F04009DFE700F10C0586212846FEF73FFF431CD6D000F0E00021
:2018800040F01902EAE700BF058E000808070020438F00086F8F000870B56426B1FBF6F37F
:2018A00006FB13139BB20C4633B132461549164806F0D9FB002070BDB1F5FA7F03D24FF4FC
:2018C000FA721249F3E740F6AC52914201D91049EDE700F10C0596212846FEF70CFF431CD3
:2018E000E8D0A4F5FA74B4FBF6F400F0E00044EA000296212846D2B2FFF7C4F8B0FA80F01B
:201900004009D8E7058E000808070020958F0008C58F000870B56426B1FBF6F306FB131302
:201920009BB20C4633B132461449154806F09BFB002070BDB1F5FA7F03D24FF4FA7211491C
:20194000F3E740F64852914201D90F49EDE700F10C0599212846FEF7CEFEA4F5FA74B4FB63
:20196000F6F400F0E0002043C2B299212846FFF789F8B0FA80F04009DBE700BF058E0008B8
:2019800008070020F58F00082590000870B56426B1FBF6F306FB13139BB20C4633B1324669
:2019A0001549164806F05FFB002070BD40F62723994203D840F628221149F2E740F6E44289
:2019C0009142F9D800F10C056A212846FEF793FE431CE9D0A4F62824B4FBF6F400F0F80063
:2019E00044EA00026A212846D2B2FFF74BF8B0FA80F04009D9E700BF559000080807002003
:201A00008D900008036870B55B6D05460E461446984728B19D499E4806F025FB002070BD69
:201A2000142EFBD801A353F826F000BF811A0008D31A0008DD1A0008E71A0008F11A00081A
:201A40001D1A00081D1A00081D1A00081D1A00081D1A00081D1A0008FB1A0008451B000887
:201A60008D1B0008D71B0008211C0008211C00082B1C00082B1C0008351C00083F1C0008D8
:201A80006421B4FBF1F301FB13439BB213B16422804906E040F2DB539C4206D840F2DC521A
:201AA0007D497B4806F0DFFAB8E740F64852944201D97A49F5E7A4F2DC52B2FBF1F2822119
:201AC000D2B205F10C00FEF7DDFFB0FA80F04009A5E721462846FFF7B3FDA0E721462846E9
:201AE000FFF7F0FD9BE721462846FFF73FFE96E721462846FFF77CFE91E76426B4FBF6F31D
:201B000006FB13439BB2002BC1D1B4F5FA7F03D24FF4FA726249C4E740F6AC52944201D984
:201B20006049BEE70C3592212846FEF7E4FDA4F5FA74B4FBF6F4922100F0E0022243D2B211
:201B40002846C0E76426B4FBF6F306FB13439BB2002B9CD1B4F5FA7F03D24FF4FA725249D1
:201B60009FE740F6AC52944201D9504999E70C3593212846FEF7BFFDA4F5FA74B4FBF6F42E
:201B800000F0E00222439321D2B2D9E76426B4FBF6F306FB13439BB2002B7FF478AFB4F5E2
:201BA000FA7F03D24FF4FA7241497AE740F6AC52944201D93F4974E70C3594212846FEF71D
:201BC0009AFDA4F5FA74B4FBF6F400F0E00222439421D2B2B4E76426B4FBF6F306FB13434A
:201BE0009BB2002B7FF453AFB4F5FA7F03D24FF4FA72314955E740F6AC52944201D92F4940
:201C00004FE70C3595212846FEF775FDA4F5FA74B4FBF6F400F0E00222439521D2B28FE73B
:201C200021462846FFF738FEF9E621462846FFF771FEF4E621462846FFF7A8FEEFE6322612
:201C4000B4FBF6F306FB13439BB20BB132461FE7B4F5FA7F03D24FF4FA72194921E7B4F555
:201C6000AF6F03D94FF4AF6216491AE70C3598212846FEF740FDA4F5FA74B4FBF6F400F08C
:201C8000E00020439821C2B25AE700BFE090000808070020058E0008269100084D910008ED
:201CA00074910008A4910008D491000804920008349200086492000894920008C492000877
:201CC000F4920008259300082DE9F043012185B00D2005F0F1FD00210D2005F04BFEFEF785
:201CE000C7FC774806224FF4E13106F01BF9754B754C5A6E0025C4F884201B6E2046C4F862
:201D0000883000231F211A4600F021FF204642F2107100F01BFD6D4B694600936C4B2046FE
:201D200003936C4B0195029300F0B3FF6846FEF7B2FA694F694B6A4E20466946694C0093B9
:201D400001950397029600F0CCFF6846FEF7A3FA94F80C80B8F1000F00F08F802046FEF796
:201D6000EBFA002840F0A0805F49554806F068F900212C2005F0A0FD01212D2005F09CFD6E
:201D800000212D2005F0F6FD01210E2005F094FD01210E2005F0EEFD42F2107005F018FD29
:201DA0006421082005F01AFDFEF72CFC4F4B504A6FF0DE005A60FEF727FB01210D2005F0C7
:201DC000D9FD4FF42F614748FFF762FA4548FFF7B7FA4448FFF7DCF94248FFF7E0F941480C
:201DE000FFF7E4F93F48FFF7E8F93E48FEF774FE0221292005F060FD002301933D4B694619
:201E0000032229200093CDE9026706F0CFF96846FEF741FA4FF0FF3200233248FFF786FB82
:201E20003048FFF71AFA344A00232E48FFF784FB1A213248FEF75FFC421C05D000F00F025B
:201E40001A212E48FEF71EFE1A212C48FEF753FC431C07D000F0F00040F001021A212748DA
:201E6000FEF710FE0022264B1A600122254B1A7005B0BDE8F043FFF757B901231B214FF003
:201E80001A09214D23732846C4E905192561FEF72FFA49462846FEF707FA4146284600F066
:201EA00051FE3423237759E70122184B0D481A70FEF7DBFC16490246014806F0D4F857E781
:201EC000700200206C9C0008A8040020A921000891020008710200086D020008A922000862
:201EE0004D0200088C0300205693000838010020610500080D02000800FC1800980300203E
:201F000088030020BD030020C4030020BF0300206B93000870B516460546FEF7ECFB044675
:201F200031462846FEF7E7FB621C07D0431C05D0240204F47C54204380B270BD0020FCE7A9
:201F4000036810B5DB680446984728B13922382104F10C00FFF7DEFF10BD08B53B223A2142
:201F60000C30FFF7D7FF08BD38B55B495B4806F04DF85B48FEF744FC5A4D5B4C00280CBF0C
:201F800029462146554806F05BF85849534806F03DF85348FEF73EFC00280CBF294621468B
:201FA0004E4806F04DF852494C4806F02FF801215048FEF7A0FB400914BF29462146474839
:201FC00006F03EF84C49454806F020F84448FEF7C0FB00280CBF29462146404806F030F8FA
:201FE00046493E4806F012F8052200214148FEF792FB00280CBF29462146384806F020F822
:202000003F49364806F002F801213A48FEF773FB431C5FD010F007004CD13A492F4806F021
:202020000FF839492D4805F0F1FF2D48FEF70EFD0A220146294806F062F83449274805F033
:20204000FFFF3349254805F0E1FF2548FFF778FF0A220146214806F052F82C491F4805F0FD
:20206000EFFF2C491D4805F0D1FF1D48FFF775FF0A220146194806F042F82449174805F03F
:20208000DFFF1748FEF75EFB78B12349134805F0BDFF1348FEF7A5FB0A2201460F4806F064
:2020A0002EF81E490D4805F0CBFFBDE838400B4805F0B4BF01380428B3D8DFE800F00305F8
:2020C00007090B001649A9E71649A7E71649A5E71649A3E71649A1E77E93000870020020A3
:2020E0008C0300207B930008779300088A9300089793000898030020A2930008AC93000873
:20210000B8930008CA930008199400085C8E000829940008399400084B9400085E940008E5
:20212000D5930008E0930008F0930008019400080D94000807B51A221B210F4800F03AFD31
:20214000002205210D4B0E48C3E908221A739A600C4A19711A600C4A17211A611622C3E9E5
:20216000051234221A77332309220A21009305F0A3FD03B05DF804FBC40300208C030020F0
:202180007002002004960008A804002008B50448FEF742F8BDE80840024800F0C3BA00BFA4
:2021A0008C030020C403002037B5354800F080FA00282BDD0024324D284600F079FA98B9C1
:2021C00002229DF800302F4C2F4903F07F03043B207060700A70092B18D8DFE803F02F196F
:2021E0001717171117243D4B284600F065FA04F108036B44C4F1010403F8080CE4B2DBE739
:20220000FEF7DCF9C0F307232370607003B030BD9DF801301D4D6B71FEF7E6F8052323707A
:202220006B796370F2E70B2319482370FEF78AFA0028EAD01648FEF7D4FAE6E7154B93F8B8
:20224000DD2093F8DB305B0143EA8213124A92F83E2013432370D9E70C2323700F4B10486C
:202260001A68C4F801205A681B7A426003720A230B70CBE70D2323700A4B1B78D1E700BF15
:20228000A80400206402002063020020280100208C03002038010020180200205A02002060
:2022A0006502002004000020024B03491A78034800F0E0BA6302002064020020A80400209C
:2022C00010B50948FEF73EFA68B10B23074C06482370FEF786FA0222054B60701A70BDE858
:2022E0001040FFF7E1BF10BD8C0300206402002063020020A74B2DE9F3411B78002B00F087
:20230000AC8105F0A7FBA44C2368C01A49F6404398420BD905F09EFB2060A048FEF761FADE
:20232000041E9F4D80F29C81FF232B709D4B1A78002A00F08E810022984C1A702046FEF7B5
:2023400073FA05469849994805F060FE10222946964805F0D6FE9649944805F057FE02223F
:202360002946924805F0DAFE94F92B30002B09DA94F92830002B05DA8E498C4805F060FE64
:20238000FFF79EFF94F82B30590608D594F828305A0604D5FFF794FF8048FEF7BEFE94F8DC
:2023A0002B309B0607D594F828309F0603D582497E4805F045FE94F82B301E0707D594F8A7
:2023C00028301D0703D57D49784805F039FE94F82B30980707D594F82830990703D5784978
:2023E000724805F02DFE94F82B30DA0707D594F82830DB0703D573496C4805F021FE67488E
:20240000FDF7ADFE18B17049684805F019FE6348FDF7AEFE28B16D49644805F011FEFEF760
:20242000ABFE5E48FDF7AFFE58B15C48FEF7D9F90028B8BFFF205A4B654918705B4805F007
:20244000FFFD5648FDF7AAFE40B1FF22544B614956481A7005F0F4FDFEF78EFE4F48FDF7D1
:20246000A8FE30B35C49514805F0EAFD5B494F4805F0CCFD04230025194659480DEB030277
:202480000195FEF705F9494FDFF8588101AE0A2216F8011B384605F03FFE0135414638467B
:2024A00005F0B4FD042DF2D1404805F0B7FDFFF75BFD3A48FDF788FE88B14B493B4805F0C2
:2024C000BFFD00210D2005F055FA00210E2005F051FA3248FEF700FB3048FEF71EFE94F8A0
:2024E0002C309F0707D594F829309E0703D53F492E4805F0A5FD94F82C30DD0707D594F8D3
:202500002930D80703D53A49284805F099FD94F82D30590607D594F82A305A0603D535496D
:20252000224805F08DFD94F82D309B0607D594F82A309F0603D530491C4805F081FD17483A
:20254000FDF74DFE164D68B11448FEF74AF920EAE07020F0800029492870144805F070FD7A
:20256000FEF70AFE0D48FDF745FE00284AD00B48FEF737F920EAE07040F08000287020490D
:202580000A4805F05DFD0548FEF7DCF8D0B3FEF7D5FA37E0BF030020880300208C030020EA
:2025A000BE030020C003002060940008700200206F94000875940008899400089694000856
:2025C000B1940008CA940008E4940008F1940008FE9400080A950008169500082895000882
:2025E000980300203F95000841950008529500086295000872950008869500089D9500080C
:20260000AD95000894F82D305E0707D594F82A305D0703D51849194805F012FD94F82D3075
:20262000980707D594F82A30990703D51449134805F006FD94F82D30DA0707D594F82A3085
:20264000DB0703D50F490D4805F0FAFC0E48FEF704FE0E4B1A780E4BDA7202B0BDE8F08183
:202660000948FEF7CDF808B144F08004E4B22C70FEF75AFD5AE600BFBE9500087002002074
:20268000D6950008EA9500088C030020BE0300202801002008B5FFF72DFEFEF719FCFDF78B
:2026A00085FEBDE808400A2005F0D6B900207047028BC08A101A70470346C28A018B914279
:2026C00081BF0169885C0132DA8298BF4FF0FF307047028BC38A9A4286BF0269D05C4FF090
:2026E000FF307047806DD0F8DC302BB10023D43020F8B23CC3681847704738B5044628305A
:2027000000F0DEFBE06918B105F0F8FD0023E36100252069258410B105F0F0FD2561A582E6
:2027200038BD000038B505460446074B45F8D43BFFF7E3FF2846FDF7AEFD04F1C400FDF7F2
:20274000AAFD204638BD00BFEC97000838B5044600F12805284600F0C3FB94F8BE304BB93E
:202760002846054900F0C5FC2846BDE83840034900F0B8BC38BD00BFE5260008B527000806
:202780000123994080F82430002381764384704738B5838A05468B420C4609D2202938BF59
:2027A00020240069214605F057FE10B12861AC8238BDFEE773B5846D0546D4F8CC30866E49
:2027C000E3B1E28A238B9A4218D331462046FFF7DFFF3246206905F1740105F03DFF002313
:2027E000E382D4F8CC30268301960BB906F0E2FAD4F8D03001A904F1C400984702B070BDE9
:20280000B1F5806F70B505460C4610D8038C99420AD920290E4638BF2026C069314605F0BD
:202820001BFE18B1E8612E84204670BDFEE70024FAE713B590F8243004468DF807107BB188
:20284000418C0131FFF7DCFF40B10120638C9DF80710E269D154638C0133638402B010BD02
:2028600001220DF10701283000F06AFBB0FA80F04009F3E770B590F8243004460E4615464B
:2028800093B1418C1144FFF7BBFF10B90025284670BD638CE0692A461844314605F0DCFE4F
:2028A000638C2B446384F2E792B2283000F048FB0028EBD1EBE70346C06918B100211A8C73
:2028C00005F079BE704738B50446D1B94FF42A03A36594F8BE30012B16D1638CE269A17EF6
:2028E00004F1280000F0ADFB042828BF042045B22046FFF7E0FF0023638484F82430E8B246
:2029000038BD4FF02A43E3E70425F8E72DE9F04790F8BEA00446BAF1010F0F46164698467D
:202920009DF820509DF8249038D111467F00FFF72FFFFFB2CDB1032D28BF03250023013D77
:20294000EDB284F824A0A7766384ED00236828FA05F120461B68C9B2083D984715F1080F5F
:20296000F4D100212046FFF7AEFFB9F1000F12D14FF42A03A36539463346226904F12800B4
:2029800000F0F8FA002818BF002600232683E3823046BDE8F0874FF02A43EBE70026F7E7EB
:2029A00007B5019300230093FFF7B0FF03B05DF804FB0123FFF7F4BF0121FFF784BF00211C
:2029C00010B50446C1820183006910B1A28A05F0F2FD002320466384FFF76DFF10BD000048
:2029E000F8B50446D0F8840004F0C4FE002104F063FFD4F88420C2F30313042B47D8274D6A
:202A0000274E55F8233002F00F029B6856F82220DB4303EA12239BB2002B3ED0D4F88800F1
:202A200004F0A8FE012104F047FFD4F888001D4BC0F3031104291B682CD81B4C1427B3FB19
:202A4000F4F30A2400F00F0256F822206343174CC2F30F2255F821C0CCF81420D4F804E00B
:202A60006668A6EB0E06B342FADCCCF81020D4F804C06668A6EB0C06B342FADC013FE9D15E
:202A800004F078FE3946BDE8F84004F015BF00239B68FFDE00235B61FBE7F8BD14000020FB
:202AA000389800083000002040420F00001000E02DE9F04100251F46D0F8DC3004460E462A
:202AC0009046C0E90455C0E9075505838576C0F8800033B100F1D401032208469847C4E9B5
:202AE0003755002384F82430730084F82530731E5E425E41204684F8BE6084F8BF8084F80C
:202B0000C07004F12805FFF76BFF94F825304FF480422846084900F019F994F8BE304BB9DE
:202B20002846064900F0E5FA2846BDE8F041044900F0D8BABDE8F081A0860100E5260008A6
:202B4000B52700080A4600230121FFF7B1BFC9B2FFF7AEBF0022C0E90022C0E90222704747
:202B60000022C0E90022C0E90222704738B500254FF47A730446C0E901530C4B40F8C43BCD
:202B8000FFF7E8FF04F1D400FFF7EAFF9C22294604F1280005F00FFD054B2046DA6DC4F8AC
:202BA00084209B6DC4F8883038BD00BFEC9700086C9C0008F8B500274FF47A7306460D4603
:202BC000C0E90173274B144640F8C43BFFF7C2FF06F1D400FFF7C4FF9C22394606F128003E
:202BE00005F0E9FCEBB2322B14D81F4A05F4E06552F823301D43E3B2322BC6F884501DD8F8
:202C0000194A04F4E06452F823301C433046C6F88840F8BD05F0C002C02A0CD1CF2B0AD80E
:202C2000124B05F03F0253F822200F4B05F4E06553F82230DEE74FF0FF35DCE704F0C0028E
:202C4000C02A0CD1CF2B0AD8084B04F03F0253F82220054B04F4E06453F82230D5E74FF098
:202C6000FF34D3E7EC9700086C9C00082C9C000813B56C460B46024603C884E8030093E834
:202C8000030082E8030094E8030083E8030002B010BD7FB50023CDE90033CDE902338B683A
:202CA00004460D4600F1C40633B1022268469847EB680393AB68029331466846FFF7D8FFA4
:202CC000029BD4F8CC20C4F8CC30039B0292D4F8D0206846C4F8D0300392FDF7DCFA04B07C
:202CE00070BD7FB50023CDE90033CDE902338B6804460D4600F1D40633B10222684698478C
:202D0000EB680393AB68029331466846FFF7B0FF029BD4F8DC20C4F8DC30039B0292D4F82D
:202D2000E0206846C4F8E0300392FDF7B4FA04B070BD00000148FFF719BF00BFA80400205F
:202D40000148FFF7EFBC00BFA80400202DE9F3410D46174698460446002800F09D8050490E
:202D6000C06D03F02FFF4F490646206E03F02AFF0146002E00F09080002800F08D80304667
:202D800003F047FF2060002800F08680464B261D98425ED103F5DE33DA6942F40012DA61B0
:202DA000DA6902F400120092009A1A6942F400121A611A6922F400121A6142F21F03A4F83E
:202DC00064303A4B1E603749206E03F0E3FEE06D334903F0DFFE36482268854256D9354866
:202DE000854203D93448854288BF00204FF480430025C4E9033894F8973002215B1B18BFB0
:202E000001239B01236294F89830C4E901205B1B18BF0123DB0163622A4694F96400C4E92B
:202E20000575E56184F8415000F014FE94F9640000F040FE2A46022194F9650000F00AFE27
:202E400094F9650000F036FE304601F01BF8F8B1FEE71A4B9842B6D103F5DC33DA6942F40E
:202E60008002DA61DA6902F480020192019A1A6942F480021A611A6922F480021A6142F22C
:202E80002123A4F86430094B5E609CE70023AFE70223A06684F8953002B0BDE8F08100BF7D
:202EA000FC9B0008CC9B0008005400408C050020A0860100801A060040420F0000580040CF
:202EC00010B5044690F9640000F002FE94F9650000F0FEFD201DBDE8104001F07AB80000D4
:202EE000144B10B59942044642680FD8116821F0010111600022C4E90232201D00F0C2FF0A
:202F00006268136843F00103136010BD0A4B994202D90A4B994206D8116821F001011160DF
:202F20004FF48042E7E7136823F0010313600023F6E700BFA0860100801A060040420F00A2
:202F4000202A30B514D800239CB2A24207D890F894301344DBB280F89430002030BD90F821
:202F60009440CD5C1C44044484F874500133EBE70120F3E72DE9F34705460F4690469946C6
:202F800000F050FD00240646D5F830A004354B46424639462846CDF800A001F04BF90228E4
:202FA00006D100F03FFD841B642CF0D906201FE008BB00F037FD0646284602F0DFF820283F
:202FC00009D0632C07D800F02DFD841B284602F0D8F80028F0D0284602F0D3F8632C0CD83B
:202FE00082060AD443070AD4003818BF0120800002B0BDE8F0870420FAE70520F8E7032099
:20300000F6E710B564230446043000F0FBFF02280AD0032801D068B910BD94F84130202BE9
:203020000CBF02200520F7E794F84130202B18BF0620F1E794F84130202B0CBF022004202A
:20304000EAE72DE9F34704460E4691461F4600F0E9FC80463FB901223146204602B0BDE88B
:20306000F047FFF7CEBF0025D4F830A004343B464A4631462046CDF800A001F073F80228C4
:2030800007D100F0CFFCA0EB0805642DEFD906201FE008BB00F0C6FC0646204602F06EF808
:2030A000202809D0632D07D800F0BCFC851B204602F067F80028F0D0204602F062F8632D57
:2030C0000CD882060AD443070AD4003818BF0120800002B0BDE8F0870420FAE70520F8E7F7
:2030E0000320F6E720B119B1C166043001F09EB9704720B119B10167043001F097B97047AC
:2031000070B590F891300446012B0D46A0F1040609D1436E3BB1836E30469847022384F87F
:203120009130002363668DB9E36E84F891501BB1304684F890509847204694F8902004F1DA
:2031400070012023BDE8704001F0FAB800230122636684F89120616E204674313144042311
:20316000BDE8704001F027B910B590F891300446012B04D1436E13B1836E0438984702232A
:2031800084F89130002320466366BDE8104001F04DB9436E1F2BDEBF436E0133436690F806
:2031A0009130012BDAB205D1416E04237031014401F001B97047002380F89030704790F808
:2031C00092300BB901F032B970470000014B186801F0C8BA8C050020014B186801F01EBF4C
:2031E0008C050020014B586801F0BCBA8C050020014B586801F012BF8C0500200379012BD3
:2032000007D10A2919D840F2C740C84000F001007047022B0BD1022903D8081E18BF01209C
:203220007047063903298CBF002001207047042B03D1142901D80248E7E70020704700BF62
:203240001FF81900012303FA01F183680B4383607047012303FA01F1836823EA0103836066
:2032600070478068C84000F00100704703460A4910B508680344EFF30882934205D90C229A
:203280004FF0FF30054B1A6010BD054A054C121B9342F4D20B60F7E70800002060090020C7
:2032A0000050002000040000FEE700001622024B4FF0FF301A607047600900200120704730
:2032C000836810B504462BB10322014698470023C4E9023310BD4B1E032B9ABF8800043847
:2032E0004FF0FF30704700000139435C2BB1022907D8054B33F811007047032901D8034B54
:20330000F8E74FF0FF3070472098000818980008013903299ABF024B585C4FF0FF3070474C
:2033200014980008013903299ABF024B58564FF0FF30704710980008F8B50446FFF7CBFF93
:203340000246501C0E4600D1FEE72046FFF7E0FF411C054600D1FEE731462046FFF7C4FF80
:20336000013000D1FEE7B71D04EB0717BB682BB1E94323691961D9680D43DD60731E04EB06
:20338000430189880C293FD8DFE801F04646141414070714143F3F3F2100E35C114604F16D
:2033A00010001BB1BDE8F84002F0B2BDBDE8F84002F0ECBCE35C114604F110001BB1BDE870
:2033C000F84002F05BBDBDE8F84002F093BC114604F1100002F0DCFC31462046FFF7A2FFF3
:2033E000014605462046FFF77FFF2269136A1843BB68106243B129462046FFF789FFC3431C
:203400001361D3681843D060F8BD04F110001146BDE8F84002F0BCBC23691B68DB07F3D462
:2034200004F11000BDE8F84002F0BEB9836E10B5044653B16FF0010250F8103F1A61DA6887
:2034400042F00102DA6002F0AFF920460121FFF773FF20460221FFF76FFF20460321FFF706
:203460006BFF2046BDE810400421FFF765BF00002DE9F0478CB098460446FFF72CFF431C17
:203480000F461646054600D1FEE74FF6FF7305932369D8B95B6B002206930123CDE902327F
:2034A0009DF85030CDE90922079208920B920192049307F1FF390C2E2ED8DFE806F01016C9
:2034C000264E51535C5E6064626B6D00042801D19B6BE0E708280CBFDB6B1B6CDBE7059230
:2034E0002A4605A904F1100014E004EB47077B8843B100232A467B8005A904F110000593A8
:2035000002F0B0FA0CB0BDE8F08710232A46059305A9E01802F0A6FA04EB4903B8F1FF3FA2
:203520009E80EFD0404603F09BFCA8424ED140462749093E03F02EFB032E05D8404604F0B4
:2035400019F9002104F0B8F94046214903F05CFBC0F3005004F80900D4E720230593BFE715
:203560003023FBE760232A4605A904F11000059302F09EFAD0E77023F5E75023EEE740237D
:20358000ECE7022301932A4601A904F1100002F011FBC1E70A23F5E704F1100A2A4601A9A8
:2035A000504602F007FB39462046FFF7BBFE0C2204EB40035A80022301462046CDE90133F7
:2035C000FFF789FE01A902465046E0E7FEE700BF98990008013903299ABF00EB410080884F
:2035E000002070470121103002F004B90369186800F00100704710B502460C46FFF7F6FF05
:2036000080B9CB68DB070ED5CB68104623F00103CB60FFF7E7FF6FF001032361E36843F06D
:203620000103E36010BD1046BDE81040FFF7DABF0C4A034690420ED0B0F1804F0DD0A2F569
:20364000943290420BD04FF6FF7002F58062934208BF032070470020704701207047022023
:20366000704700BF002C0140014670B5044651F8100FFFF7DDFF0546084603F041FB00238C
:20368000084A04F1600642F82530E36004F1B005B54204D0103D2846FCF7FDFDF8E7204649
:2036A00070BD00BF94050020F8B504460846FFF7BFFF4FF6FF73984200D1FEE7236903B1E5
:2036C000FEE71C4D04F10C0245F820200E2204F110063046C4E90C33C4E90E33C4E91033A1
:2036E000C4E91623216184F82C30A36484F84C3084F84D30E46003F0BFFA04F1600504F153
:20370000B00728461035FFF7DBFDBD42F9D100234FF6FF72C4E90033C4E90632C4E9083322
:20372000A360636180233046A362BDE8F84002F041B900BF9405002010B586B014220446E8
:20374000002101A804F037FF0023694601A8009301F098FF206903F069FB012802D00228DA
:203760000FD0FEE7049C01F06DFFB4F5C06F05D00BD824F48074B4F5806F00D1400006B08D
:2037800010BD059C01F06EFFEFE7B4F5E06FF4E7012A38B505460C460BD0022A16D004B15D
:2037A000013C29692846CC62EC61BDE83840FFF722BFFFF7C1FF084BB0FBF3F044432A69AC
:2037C000230C93620133B4FBF3F4E8E7FFF7B4FFB0FBF4F4F3E700BF40420F00F8B50546CE
:2037E00014461A46FFF777FD2B69411C06469F6A00D1FEE7822A07F1010730D01CD8102ACF
:2038000007D842B1DB6A03FB044301249440013C18E0812A19D04FF6FF722969CB6A934238
:2038200003D1B4F5803F08BF1C46EEB94C632846BDE8F840FFF7DFBE832AECD1DB6A03FB42
:2038400004436424B3FBF4F4E5E72846FFF774FF0A4BB0FBF3F06043B0FBF7F4DBE7284614
:20386000FFF76AFF6743F7E7042E01D18C63DEE7082E0CBFCC630C64D9E700BF40420F00F9
:20388000034B186810B1043001F0C8BF704700BF94050020FFF7F4BF034B586810B1043012
:2038A00001F0BCBF704700BF94050020034B986810B1043001F0B2BF704700BF9405002099
:2038C000034BD86810B1043001F0A8BF704700BF94050020F8B504460E4600F1600500F14C
:2038E000B00728461035FFF73BF9BD42F9D10023204631462361FFF7D7FE2046F8BD38B514
:203900000023C0E90033C0E902338B6804460D462BB102229847EB68E360AB68A360204649
:2039200038BD826810B50AB905F044FAC368BDE81040184708B500B9FEE703F09BF9006824
:20394000836E13B16030FFF7ECFF08BDFFF7F2BF10B500B9FEE7037F013B072B10D8DFE8D3
:2039600003F004140F100F0F0F12012403F082F90068063400EB041083680BB1FFF7D1FF3D
:2039800010BD0324F2E70424F0E70224EEE7FFF7DFBFFFF7DDBF04F0A9BC04F0AFBC7047CB
:2039A00038B50E4B05461A784FF47A73B3FBF2F30B4A1068B0FBF3F000F09CF8044658B9E7
:2039C0000F2D09D8024629464FF0FF3000F042F82046044B1D6038BD0120FCE70C00002024
:2039E0003000002010000020074A08B51368032043F01003136000F01BF80020FFF7D0FFFA
:203A0000FFF7CDFF002008BD00200240034A044B11681B780B441360704700BFA4050020F4
:203A20000C000020014B1868704700BFA405002007490302CA6803F4E06322F4E062120420
:203A4000120C134343F0BF6343F40033CB60704700ED00E0154B30B5DC68C4F30224C4F169
:203A60000703251D042B28BF0423062D4FF0FF3594BF0024033C05FA03F321EA0303A54076
:203A800022EA0502A340002843EA0203ACBF00F16040074A4FEA0313DBB2ABBF00F56140AD
:203AA00000F00F0080F80033135430BD00ED00E014ED00E0002807DB01234109034A00F0A5
:203AC0001F00834042F82130704700BF00E100E000280CDB01220649430900F01F008240A4
:203AE000203341F82320BFF34F8FBFF36F8F704700E100E00138B0F1807F0BD24FF0E02347
:203B0000F021054A586182F823100020072298611A6170470120704700ED00E0002808DBBB
:203B200001224309034900F01F008240603341F82320704700E100E0704708B5FFF7FCFF0D
:203B400008BD704710B5044650B1437903F0FF0213B90271FFF7F5FF01230020637110BD1B
:203B60000120FCE790F821200346022A06D0042282630120002283F8202070470268C06BD8
:203B8000116821F00E011160116821F00101116001211A6C01FA02F24260002083F8211019
:203BA000E8E7000008B590F82130022B03D004238363012008BD03681A6822F00E021A6024
:203BC0001A6822F001021A60174A93421FD0143293421ED0143293421DD0143293421DD096
:203BE000143293421DD01432934214BF4FF080734FF480130D4A5360012380F821300023AD
:203C000080F82030436B03B198470020D2E70123F0E71023EEE74FF48073EBE74FF48053A1
:203C2000E8E74FF48033E5E7080002400000024090F82100704700002DE9F74F002426461B
:203C4000DFF888C1624BDFF88CE1DFF88C810A6832FA06F502D103B0BDE8F08F0127B7400D
:203C600002EA070537EA02027AD14A68032A07D8013A022A00F28380DFE802F092979D0043
:203C8000122A00F095806DD8112A00F08B80FF2D98BF81464FF00F0B88BF00F104094FEA47
:203CA0008602D9F8007088BF203A0BFA02FA27EA0A0704FA02F21743C9F80070D1F804909D
:203CC00019F0805F4CD0DCF8182026F0030742F00102CCF81820DCF8182007F1804702F0C6
:203CE0000102019207F5803706F0030A019A4FEA8A0ABA680BFA0AFB22EA0B0B374A90426F
:203D00005DD002F5806290425BD002F58062904259D002F58062904214BF0422032202FA07
:203D20000AF242EA0B02BA609A6819F4801F14BF2A43AA439A60DA6819F4001F14BF2A43B1
:203D4000AA43DA605A6819F4003F14BF2A43AA435A601A6819F4803F14BF2A43AA431A6052
:203D6000013674E7DFF878904A4508D010D8A9F580194A4503D0724501D0424587D18A6891
:203D8000DAB1012A4FF008040CBF076147617EE7DFF850904A45F2D009F580394A45EDE7C0
:203DA000CC6874E7CC68043471E7CC6808346EE7CC680C346BE7002469E7042467E7002219
:203DC000ADE70122ABE70222A9E700BF0010024000040140000021100000111000080140F5
:203DE0000000221000003110044A08B55169014202D0506103F03EFB08BD00BF00040140D0
:203E00002DE9F84606460F4691461D464FEA114A3368BAF1010F0CBF5C699C6927EA0404DB
:203E2000A4B2B4FA84F46409A14501D0002025E06A1CEED0FFF7F6FD089BC01AA84201D850
:203E4000002DE5D13368BAF1010F0CBF5B699B6927EA03039BB2B3FA83F35B099945D7D125
:203E6000002320220120336386F83D2086F83E30326C86F83C3042F020023264BDE8F886CA
:203E80007047000070B5044608B9012070BD90F83D3003F0FF021BB980F83C20FFF7F0FF77
:203EA000242384F83D3023681A6822F001021A601A6842F400421A601A6822F400421A606E
:203EC00001F0C0FB3E4B65689D4294BF3D4B3E4B9842DAD93D4A2168B0FBF2F24B6823F0AB
:203EE0003F0313434B60431E35480E6A854226F03F0639D8013232430A626A00B3FBF2F2E6
:203F0000531C40F6FC72C869134220F44F4020F0FF0045D104230343CB610A68D4E9073041
:203F200022F0C002034313430B608A68D4E9030322F40342034322F0FF0213438B60CA68CA
:203F4000D4E9053022F0FF0203431343CB600B68002043F001030B602023206484F83D30B0
:203F6000206384F83E0091E74FF4967042434FF47A70B2FBF0F2013232430A62C869A268B3
:203F800020F44F4020F0FF006AB119226A43B3FBF2F30133C3F30B0383B143F44043BAE752
:203FA000C3F30B03B7E705EB4502B3FBF2F20132C2F30B0313B143F40043ACE70123AAE75A
:203FC000A08601007F841E00FF083D0040420F00704710B5044698B12423026880F83D301F
:203FE000136823F001031360FFF7F2FF0020206484F83C0084F83D00206384F83E0010BDB6
:204000000120FCE72DE9F04F044685B01F4688469246FFF707FD94F83D300546202B03D061
:20402000022005B0BDE8F08F00901923012220464A49FFF7E5FE0028F2D194F83C30012BB5
:20404000EED0012384F83C30236800261A68DFF80CB1D20758BF1A6808F0FE085CBF42F012
:2040600001021A601A6822F400621A60242384F83D303B4B2664E36222684FF00111136874
:20408000204643F4807313603B4600220095FFF7B7FE236838B11B680320DB0544BF4FF4FA
:2040A00000732364BDE7C3F81080FFF7BBFC4FF0A009054623685A695B69C2F34002C3F378
:2040C000802394F83D10A02901D013431DD04FF02009236884F83D905A6912F0020F1A68F3
:2040E00042F400721A6025D0002203925A69204603929B6901220393039B184919230095A7
:20410000FFF77EFE88B101208BE7FFF78BFC401BB84200D80FB984F83D9023685A695B6994
:20412000C2F34002C3F38023CBE784F83D9084F83C0076E76FF4806259465A6120461923DE
:2041400001220095FFF75CFE0028DCD10136564592D384F83D9084F83C00D4E7020010007D
:204160000000FFFFF7B5002504460095019594F83D500898202D02D0022003B0F0BD256814
:204180002E68B60503D4082801D001281BD146F2A817274E3668B6FBF7F619277E430196A1
:2041A000019E013E0196019E56B92023266384F83D3084F83E60236C43F020032364DBE7DF
:2041C000AE69B707ECD494F83C60012ED4D02E68F6075EBF2E6846F001062E602E6826F48E
:2041E00000662E60212684F83D60102684F83E60002626646385638DE06261642385236B56
:2042000062620093009B112B05D1B0F52A0F02D0B0F12A4F03D12B6843F480732B60002094
:2042200084F83C006B6843F4E0636B60A5E700BF30000020F7B5002504460095019594F841
:204240003D500898202D02D0022003B0F0BD25682E68B60503D4082801D001281BD146F28D
:20426000A817364E3668B6FBF7F619277E430196019E013E0196019E56B92023266384F8BC
:204280003D3084F83E60236C43F020032364DBE7AE69B707ECD494F83C60012ED4D00126B2
:2042A00084F83C602E68F6075EBF2E6846F001062E602E6826F400662E60222684F83D60D0
:2042C000102684F83E60002626646385638DE06261642385236B62620093638D9BB2022B08
:2042E00024D1202801D0102820D1009B122B2B681DD14FF4407223F480632B602B6843F4EA
:2043000000632B60009B122B05D1B0F52A0F02D0B0F12A4F03D12B6843F480732B600020FB
:2043200084F83C006B6813436B608EE72B6843F480634FF4E0622B60E4E700BF30000020C5
:2043400037B5044690F83D0000F02800282830D100292CD0002A2AD094F83C00012828D0C7
:2043600025682868C0075EBF286840F001002860286820F400602860292084F83D00202025
:2043800084F83E00002020646285628DE36201906B6961620193AB6984F83C000193019BEC
:2043A0006B68228543F4E0636B6003B030BD0120FBE70220F9E737B5044690F83D0000F0AE
:2043C0002800282830D100292CD0002A2AD094F83C00012828D025682868C0075EBF2868A1
:2043E00040F001002860286820F4006028602A2084F83D00202084F83E00002020646285F0
:20440000628DE36201906B6961620193AB6984F83C000193019B6B68228543F4E0636B60F1
:2044200003B030BD0120FBE70220F9E790F83D30202B14D1282380F83D30036800201A6875
:20444000D2075EBF1A6842F001021A601A6842F480621A605A6842F440725A6070470220E4
:20446000704770477047704710B590F83D10026D0346C9B282B9C26C0168012A826C05D1D2
:20448000D2B20A61026D02321A6510BDC2F307220A611A6D0132F7E7026D012A03D1826C01
:2044A0000168D2B2F4E7026D022A31D1222905D101680A6842F480720A60EAE7428D92B225
:2044C00072B121290AD1426A016812F8010B08615A625A8D013A92B25A85D6E75B8DD4E79F
:2044E000428D92B2002AD0D12129CED101684C6824F4E0644C600C6844F400740C60202103
:20450000026380F83D1080F83E20FFF7ACFFBCE703685A69120644BF00221A61B5E770471E
:2045200070470000002373B5406A019390F83D20344BD4B246F2A8121B68B3FBF2F3232204
:20454000534301930368019A02BB026C42F020020264D0E90D1201BB002A32D1196821F4EF
:204560008061196042851A6822F001021A6090F83D20602A2CD1202380F83D30002380F8DA
:204580003E300364FFF7CCFF02B070BD019A013A01921A689205D6D4DBE700258D6232B9B9
:2045A0001D6825F480651D6042854A63DBE71E68956226F480661E6045854D63002151637B
:2045C000D1E71D68916225F480651D604185F5E704F02802282A0ED1196841F00101196012
:2045E000196841F4806119600023036380F83D20FEF7E5FDC8E7202380F83D30002380F804
:204600003E30F5E73000002010B590F83D2090F83E300446102BD9B2D2B2036801D0402927
:204620000CD1222A0AD11A6822F400621A6022685268120549D50022226307E002F02801E0
:2046400028293DD10022226384F83D105A6812F400625BD05A68606B22F400625A6090F8EF
:204660002130012B3D4B37D04363FFF79BFA50B12268606B136823F001031360202384F8E3
:204680003D30436B9847236C19071FBF2268536823F4E063536094F83D30226CDBB25207D4
:2046A0000DD5282B0BD12E4B2022E36200232046236384F83D2084F83E30FEF755FD10BD03
:2046C00059680805B7D4602AB5D0202284F83D20002284F83E20AEE7A06B4363FFF762FAC3
:2046E0000028D0D023685A69510605D51A69636A1A70636A013363622268A06B136823F0B0
:2047000001031360202384F83D30BAE794F83D10602915D1202184F83D1022645A69520662
:2047200005D51A69636A1A70636A0133636222682046136823F001031360FFF7F1FEA2E79C
:204740005A69500605D51A69636A1A70636A013363622046FEF733FD95E700BF254500088E
:204760000000FFFFF0B5044603688FB05A68C66A90F83E0094F83D101028C5B2C9B202D015
:20478000402D40F0D9829F69586910F0010F07D1B6F52A0F02D0B6F12A4F51D10FB0F0BD0C
:2047A00096054DD5E26AB2F52A0F0CD10122E26294F83E20402A11D1226D52B9626C02F03C
:2047C000FE021A61EAE7E26AB2F12A4FF0D10822EDE7626C42F00102D2B2F2E72269B2F5D4
:2047E000804F1AD194F83D20212A626C11D102F0FE021A61626B0AB1926A2AB9A26B002A10
:20480000CCD0926A002AC9D05A6842F400625A60C4E742F00102D2B2EBE7226D32B9626CAB
:20482000D21102F0060242F0F002CAE7226D012AB4D1626CD21102F0060242F0F102C0E710
:20484000060703D5960501D5626CE4E7860740F1F280960540F1EF8094F83E10E26A256B48
:2048600094F83D00C9B2222840F0DD80206D40B9402906D100905A6900929B690093009B40
:204880008CE7216D89B92069B0F5404F0DD101915A6901929A690192019A1A6842F4807277
:2048A0001A60236D0133236578E7618D89B251B902915A6902929A690292029A1A6842F4CB
:2048C00000721A6019E0618D89B2012949D112F5803F1BD11A6822F480621A605A6812F418
:2048E00000620CD01A6822F480621A60002203925A6903929B690393039B0023D3E70492CC
:204900005A6904929A690492049AD7E7082A1CD0202A1AD0122D0DD1012A16D11A6822F430
:2049200080621A60002205925A6905929B690593059BE2E7102AF1D8874941FA02F2D20728
:20494000ECD41A6842F48062EBE71A6822F480621A60002206925A6906929A690692069AE7
:20496000ACE7618D89B202293AD1102A03D87B49D140CF0716D4196841F4006119600021EA
:20498000079159690791996907910799196821F48061196059680E05AFD5202A10D912F569
:2049A000803F10E0196841F480611960002108915969089199690891089959680D059CD5A3
:2049C000072A02D8012A98D105E0A2F10801644ACA40D00791D55A6842F480525A608CE7CB
:2049E000196841F4806119605968090505D5202A16D8072A09D8012A0DD0002209925A692C
:204A000009929B690993099B77E7A2F10801544ACA40D207F1D55A6842F480525A60ECE71F
:204A200012F5803FE8E700220A925A690A929B690A930A9BB2E67F0740F194805E6836051A
:204A40003FF5ACAE070600F004063ED550053CD5002E3DD194F83D20258D94F83E10D2B213
:204A6000E06AC9B2C5B9212A18D1082858D0202856D010F5803F53D05A6822F4E0625A603E
:204A800011232363002384F83E302023204684F83D30FFF7E6FC81E6212A05D040297FF482
:204AA0007DAE222A7FF47AAE628D92B21AB95A6822F48062ABE694F83E20402A16D12046F2
:204AC0000FB0BDE8F040FFF7CFBC002E3FF466AE97057FF563AE212939D1E16A94F83D20A3
:204AE000212A7FF45BAE628D92B24AB1626A12F8011B19616262638D013B9BB263854DE6FD
:204B000008290DD020290BD011F5803F08D0596821F4E06159601123236384F83E20B4E7C7
:204B20005A68204622F4E0625A601A6842F400721A6000232022236384F83D2094F83E20E9
:204B400084F83E30402AA4D1FFF78DFC26E6402D7FF424AEB3E700BFEBFFFEFF14000100FA
:204B60000101000159680E053FF518AE450600F0040176D5500574D5002975D194F83D20E3
:204B8000222A7FF40BAE628D92B2032A14D91A69636A1A70636A01336362638D013B9BB237
:204BA0006385638D9BB2032B7FF4F8AD2268536823F480635360F1E5E06A02283FF477AFF5
:204BC000012A3FF674AF0B9146F2A811734A1268B2FBF1F202EB82020B920B9A013A0B9273
:204BE0000B99D1B9226C204642F0200222645A6822F4E0625A601A69636A1A70636A01330A
:204C00006362638D013B9BB26385202384F83D3084F83E10FEF7D3FAC0E51A6812F4007217
:204C2000DBD1196821F480611960596821F4E06159601969636A1970636A01336362638D7A
:204C4000013B9BB26385202384F83D3094F83E3084F83E20402B69D122632046FFF75FFC02
:204C60009CE500293FF49AAD92057FF597ADE26A608D616A80B2042809D15A6822F48062CB
:204C80005A601B690B70636A0133636233E7608D80B203280CD15868042A20F480605860BA
:204CA000EFD0022AEDD01A6822F480621A60E8E7608D80B20228E4D1042A33D007D8012A50
:204CC00007D0022A2ED01A6842F4007204E0102AF9D11A6822F480621A601B690B70626A02
:204CE000531C6362638D013B9BB2638523681B695370636A226801336362638D013B9BB284
:204D00006385536823F440735360202384F83D3094F83E30402B4FF0000384F83E3005D1E0
:204D200023639AE71A6842F48062D5E7122320462363FFF797FB31E5206C10B30025586922
:204D400087072DD596052BD5226C02B19D6994F83D2002F02802282A16D15A682F0622F496
:204D600080625A604FF0000385F00401204654BFA289228BC1F3800184F83C30FEF7C0F9BF
:204D80000CE59D695869DBE700220C9259690C919B6984F83C200C930C9BFFE43000002025
:204DA000C60640F1C280950540F1BF8094F83D505A68EDB222F4E0625A6000220D925A699A
:204DC0000D921A6842F001021A600D9A1A6822F480621A605A68100520D505F0F702222A62
:204DE0003DD1A06B0268526892B26285628D92B21AB1226C42F0040222645A6822F40062C7
:204E00005A60FEF715FF012808D0A06B814B4363FEF7C8FE10B1A06B436B9847638D9BB200
:204E2000002B3CD1236C002B56D12A2D74D123632823204684F83D30FEF7ABF994F83D300B
:204E4000282B5AD1744B2022E36200232046236384F83D2084F83E30FEF786F99EE4606BFB
:204E60000268526892B26285628D92B21AB1226C42F0040222645A6822F400625A60FEF7B0
:204E8000D7FE012808D0606B624B4363FEF78AFE10B1606B436B9847638D9BB2D3B123683C
:204EA0005A6951071ED423685A69520609D51A69636A1A70636A01336362638D013B9BB248
:204EC0006385638D9BB2002BACD0236C43F004032364A7E7236CFBB120460FB0BDE8F040F3
:204EE000FFF792BB1A69636A1A70636A01336362638D013B9BB26385D5E7236B222B7FF464
:204F00004DAC00232022236384F83D2084F83E302046FEF73EF941E494F83D30282B91D086
:204F2000236B222BEDD0222DE9E701F0F701212900F0040535D1070627D5560525D53DBB32
:204F400094F83D00628DC0B292B2002A3FF426AC626A12F8015B1D616262628D013A92B2D2
:204F60006285628D92B2002A7FF418AC29287FF415AC5A68204622F480625A602823216388
:204F800084F83D30FEF717F908E4002D3FF406AC95057FF503AC628D92B2002A3FF4FEAB2F
:204FA000A4E5400627D5510525D53DBB94F83D20618DD2B289B200293FF4F0AB1969636A02
:204FC0001970636A01336362638D013B9BB26385638D9BB2002B7FF4E1AB2A2A7FF4DEAB6A
:204FE0002268536823F48063536022232363282384F83D308CE7002D3FF4D0AB92057FF567
:20500000CDAB628D92B2002A3FF4C8AB1A69636A1A7038E6254500080000FFFFF8B5036895
:20502000044659695E6890F83E2011F48075D2B20AD016F4807507D06FF480700125586158
:20504000186840F40040186001F4806001F40067890510D5F1050ED56FF4007145F0020557
:20506000596160B917BB236C20462B432364BDE8F840FFF7C9BA002849D0F1054AD5B4F849
:205080002AC094F83D00202A6FF48061D4F830E01FFA8CFCC0B262D1BCF1000F0DD059615A
:2050A00045F00405002FDED0F205DCD56FF40062236845F008055A61D5E700F0F702212AF0
:2050C00004D02828EBD1BEF1210FE8D194F83D20E16AD2B2082901D020291ED1282A1CD127
:2050E000254A2046E2625A6822F4E0625A606FF480625A611A6822F480621A60002320226A
:20510000236384F83D2084F83E30FEF72DF80FB1F305CBD4002DA6D1F8BD212A1BD11649E6
:20512000E16222630021202284F83D2084F83E105A6822F4E0625A606FF480625A611A684B
:2051400022F480621A605A69100648BF19612046FEF731F8DBE76FF480625A61D7E7102A45
:20516000596145F0040501D0402A9BD11A6842F400721A6096E700BF0000FFFF90F83D00ED
:205180007047006C704700002DE9F341054638B30368DB0710D42B689F075ED42B68190766
:2051A00000F195802B685A0700F1C180EB69002B40F02C81002029E0904C636803F00C0395
:2051C000042B07D0636803F00C03082B0AD16368DE0307D523689C03DDD56B68002BDAD1E1
:2051E000012013E06B68B3F5803F12D1236843F480332360FEF716FC064623689803CAD46F
:20520000FEF710FC801B6428F7D9032002B0BDE8F0819BB9236823F480332360236823F4DD
:2052200080232360FEF7FEFB064623689903B2D5FEF7F8FB801B6428F7D9E6E7B3F5A02F3D
:20524000236803D143F480232360CFE723F480332360236823F48023CBE7684C636813F016
:205260000C0F07D0636803F00C03082B10D16368DA030DD423689B0702D52B69012BAFD18E
:2052800023686A6923F0F80343EAC203236085E72A695B4B6AB101221A60FEF7C3FB0646D1
:2052A00023689F07ECD4FEF7BDFB801B0228F7D9ABE71A60FEF7B6FB0646236898077FF51F
:2052C0006DAFFEF7AFFB801B0228F6D99DE7AA694A4E4B4BE2B10122C3F88024FEF7A2FB13
:2052E0000446736A9B070DD54FF4FA52454B1B68B3FBF2F3019300BF019B5A1E0192002BA9
:20530000F9D14FE7FEF78EFB001B0228E9D97CE7C3F88024FEF786FB0446736A9F077FF58F
:2053200041AFFEF77FFB001B0228F6D96DE7334CE369D80024D40127E36943F08053E3614D
:20534000E36903F080530093009B2F4E3368D90518D5EB68012B26D1236A43F0010323626B
:20536000FEF760FB41F288380646236A9B073FD5002F3FF41BAFE36923F08053E36115E7BD
:205380000027E2E7336843F480733360FEF74AFB80463368DA05DCD4FEF744FBA0EB0800D4
:2053A0006428F6D931E7ABB9236A41F2883823F001032362236A23F004032362FEF732FBAC
:2053C0000646236A9807D3D5FEF72CFB801B4045F7D91AE7052B236A03D143F00403236250
:2053E000BAE723F001032362236A23F00403B6E7FEF718FB801B4045B7D906E70010024035
:205400000000424230000020007000402A4C626802F00C02082A3ED00022022B274B1A6647
:205420002CD1FEF7FFFA06462368990120D42B6AB3F5803F05D16268A96822F400320A43DA
:205440006260696A62680B4322F474121343012263601A4B1A66FEF7E5FA054623689A019D
:205460003FF5A8AEFEF7DEFA401B0228F6D9CCE6FEF7D8FA801B0228D6D9C6E6FEF7D2FA27
:20548000054623689B017FF595AEFEF7CBFA401B0228F6D9B9E6012B3FF4A2AE60682B6A2A
:2054A00000F480329A427FF49BAE6B6A00F47010C01A18BF0120A9E600100240000042422E
:2054C0000D4A536803F00C01082912D10B48C3F38341DB03405C09D55368094AC3F340433A
:2054E0005043084AD35CB0FBF3F07047064B584370470348704700BF0010024028980008D5
:2055000000127A002698000800093D002DE9F0410D46044610B90120BDE8F081444A136806
:2055200003F007038B4228D321688E0730D4CA0743D43F4A136803F00703AB4265D82268E7
:205540003C4D12F0040F6CD1130706D56B68226923F4605343EAC2036B60FFF7B1FF6B681D
:20556000354AC3F30313D35CD840344B1860344B1868FEF715FA0020CEE7136823F0070332
:205580000B431360136803F007038B42C3D1CBE7284B11F0040F1EBF5A6842F4E0625A6067
:2055A000080742BF5A6842F460525A605A68A06822F0F00202435A60B9E762681D4E012AAA
:2055C00033681AD113F4003FA5D0736841F2883823F0030313437360FEF724FA074673683F
:2055E000626803F00C03B3EB820FA2D0FEF71AFAC01B4045F3D903208EE7022A02D113F06F
:20560000007FE1E713F0020FDEE7136823F007032B431360136803F00703AB427FF47BAFEF
:205620008DE76B68E16823F4E0630B436B608BE700200240001002408098000830000020D1
:2056400010000020044B054A5B68C3F30223D35C034A1068D84070470010024078980008B1
:2056600030000020044B054A5B68C3F3C223D35C034A1068D84070470010024078980008B1
:20568000300000200F2303600B4B5A6802F0030242605A6802F0F00282605A6802F4E062F2
:2056A000C2605B68DB0803F4E0630361034B1B6803F007030B6070470010024000200240E0
:2056C000036A026A70B522F001020262446882690D6822F073022A438D6823F002032B43D8
:2056E0000A4DA8420BD1CD6823F008032B4324F44074D1E90556354323F004032C43446046
:2057000082614A684263036270BD00BF002C0140036A026A70B522F4807202624468C26950
:205720000D6822F073022A438D6823F4007343EA05230B4DA8420DD1CD6823F4006343EA30
:20574000052324F44054D1E90556354323F4806344EA05144460C2614A68C263036270BD77
:20576000002C0140036A026A30B522F4805202624468C2690D6822F4E64242EA05228D68E0
:2057800023F4005343EA0533064DA84202BF4D6924F4804444EA85144460C2614A68026404
:2057A000036230BD002C014090F83D30012B1CD102230F4A80F83D30036893420AD0B3F1FB
:2057C000804F07D0A2F59432934203D002F58062934204D19A6802F00702062A03D01A6819
:2057E00042F001021A60002070470120704700BF002C014090F83C200346012A4FF0020086
:2058000009D01A6883F83D0051610020012283F83C0083F83D20704770477047036810B59C
:205820001A69044691070ED5DA6892070BD56FF002021A61012202779B699B0777D0FEF709
:20584000A8F80023237723681A69500710D5DA6851070DD56FF004021A61022222779B6984
:20586000204613F4407F68D0FEF793F80023237723681A6912070FD5DA6810070CD56FF0E3
:2058800008021A6104222277DB69204699075AD0FEF77FF80023237723681A69D20610D55C
:2058A000DA68D0060DD56FF010021A6108222277DB69204613F4407F4BD0FEF76AF800233A
:2058C000237723681A69D10708D5DA68D20705D56FF0010220461A61FEF738F823681A6900
:2058E000100608D5DA68110605D56FF0800220461A6100F010FB23681A69520608D5DA6840
:20590000500605D56FF0400220461A61FFF785FF23681A69910622D5DA6892061FD56FF092
:2059200020022046BDE810401A6100F0F3BAFEF72EF82046FFF770FF83E7FEF728F8204607
:20594000FFF76AFF92E7FEF722F82046FFF764FFA0E7FEF71CF82046FFF75EFFAFE710BDF5
:20596000134A036890420AD0B0F1804F07D0A2F59432904203D002F58062904207D14A6835
:2059800023F070031343CA6823F4407313434A6923F08003134303608B68C3620B68836267
:2059A000034B984204BF0B690363012343617047002C014010B5044630B390F83D3003F05C
:2059C000FF021BB980F83C2001F008FA0223206884F83D30211DFFF7C3FF0123002084F8DF
:2059E000463084F83E3084F83F3084F8403084F8413084F8423084F8433084F8443084F83A
:205A0000453084F83D3010BD0120FCE7036A026A70B522F010020262446882690D6822F4AF
:205A2000E64242EA05228D6823F0200343EA05130B4DA8420DD1CD6823F0800343EA05134B
:205A400024F44064D1E90556354323F0400344EA8504446082614A688263036270BD00BF81
:205A6000002C014010B590F83C300446012B1DD0082A17D007D862B1042A0FD00120002341
:205A800084F83C3010BD0C2AF8D10068FFF76AFE02E00068FFF714FE0020F0E70068FFF7E5
:205AA000B5FFF9E70068FFF733FEF5E70220E9E738B590F83C300446012B4FD00120082A2C
:205AC00084F83C003AD006D8BAB1042A26D0002384F83C3038BD0C2AF9D12068FFF742FED9
:205AE000C3690A6943F40063C361C36923F48063C361C36943EA02232EE02068FFF7E0FD18
:205B000083690A6943F008038361836923F0040383618369134383610020D8E72068FFF797
:205B200075FF83690A6943F400638361836923F480638361836943EA0223ECE72068FFF7BB
:205B4000E7FDC3690A6943F00803C361C36923F00403C361C3691343C361DDE70220B9E7CA
:205B600070B5056A046A124E24F001040462B042846919D0B0F1804F16D0A6F59436B042CF
:205B800012D006F58066B0420ED044F001021B0122F0F002DBB2134301F00A0125F00A021B
:205BA00011438361016270BD24F003042243EEE7002C0140F8B590F83C300546012B0C46F1
:205BC00000F08880012085F83C008AB92868CB6806C9FFF7C5FF8369A26823F00C03836168
:205BE0008369134383610020002385F83C30F8BD042A24D1D1E900272B68C9681E6A186ACC
:205C0000090320F010001862986989B220F4407040EA072020F470401201014302F0A002DE
:205C200026F0A000024399611A629A69A16822F440629A619A6942EA01229A61D3E7082AFB
:205C400022D1D1E900202B68C9681E6A1F6A090127F480771F62DF69C9B227F003073843A6
:205C600020F0F0001202014302F4007226F400700243D9611A62DA69A16822F00C02DA6138
:205C8000DA690A43DA61AEE70C2AADD1D1E900272B68C9681E6A186A090320F480501862D7
:205CA000D86989B220F4407040EA072020F470401203014302F4005226F400500243D96105
:205CC0001A62DA69A16822F44062DA61DA6942EA0122D7E702208AE710B50124036A01F0DE
:205CE0001F018C4023EA04030362036A8A401A43026210BD08B529B990F83E30012B1DD0CC
:205D000001202FE0042907D190F83F30012BF7D1022380F83F3014E0082907D090F8413062
:205D2000012BEDD1022380F841300AE090F84030012BE5D1022380F8403002E0022380F81B
:205D40003E3000680122FFF7C7FF0E4B98420AD1436C43F400434364836803F00703062B97
:205D60000BD1002008BDB0F1804FF5D0064B9842F2D003F580639842EED0036843F001032B
:205D80000360EEE7002C014000040040FFF7B2BF034610B559BB90F83E4093F84220012C71
:205DA000E0B2D2B257D1012A20D1022283F83E2083F8422018680122FFF78EFF274B98423D
:205DC0000AD0B0F1804F07D0A3F59433984203D003F58063984204D1836803F00703062BF3
:205DE00003D0036843F001030360002010BD04290FD190F83F4093F84320012CE0B2D2B299
:205E000029D1012AF2D1022283F83F2083F84320D0E708290FD090F8414093F84520012CD1
:205E2000E0B2D2B217D1012AE0D1022283F8412083F84520BEE790F8404093F84420012CDF
:205E4000E0B2D2B207D1012AD0D1022283F8402083F84420AEE70120C8E700BF002C014019
:205E600010B50424036A01F01F018C4023EA04030362036A8A401A43026210BD08B529B90E
:205E800090F84230012B1DD001203EE0042907D190F84330012BF7D1022380F8433014E0B8
:205EA000082907D090F84530012BEDD1022380F845300AE090F84430012BE5D1022380F87C
:205EC000443002E0022380F8423000680422FFF7C7FF436C43F4004343640C4B98420AD038
:205EE000B0F1804F07D0A3F59433984203D003F58063984204D1836803F00703062B03D0D9
:205F0000036843F001030360002008BD002C0140FFF7B4BF70477047026802F10C0353E8AC
:205F2000003F23F490730C3242E8003102680029F2D102F1140353E8003F23F0010302F18B
:205F4000140C4CE800310029F3D1036B012B0BD102F10C0353E8003F23F0100302F10C0CAC
:205F60004CE800310029F3D1202380F8423000230363704710B504460368C1681A6922F426
:205F800040520A431A6182680069D9680243606921F4B05121F00C0102430A43DA605A6942
:205FA000A16922F440720A435A610E4A934215D1FFF758FB19234343626820689200B3FB57
:205FC000F2F36422B3FBF2F102FB11331B013233B3FBF2F303EB0113836010BDFFF732FB9B
:205FE000E8E700BF00380140F8B504460E4617461D462268136836EA030301D1002028E06A
:206000006B1CF7D025B1FDF70DFDC01B8542F0D2226802F10C0353E8003F23F4D0730C325C
:2060200042E8003021680028F2D101F1140353E8003F23F0010301F1140040E80032002A6E
:20604000F3D12023032084F8413084F8402084F84230F8BD704710B5044648B390F84130F0
:2060600003F0FF021BB980F84020FFF7F3FF2423226884F84130D368204623F40053D3609C
:20608000FFF778FF236800201A6922F490421A615A6922F02A025A61DA6842F40052DA6042
:2060A0002023606484F8413084F84230606310BD0120FCE710B5044668B390F8413003F054
:2060C000FF021BB980F84020FFF7C4FF2423226884F84130D368204623F40053D360FFF768
:2060E00049FF236800201A6922F490421A615A6922F022025A615A6942F008025A61DA6817
:2061000042F40052DA602023606484F8413084F84230606310BD0120FCE72DE9F843984618
:2061200090F841300446202B0E4617463CD100293CD0002A3AD021230025456480F84130AF
:20614000FDF770FCA3688146B3F5805FA784E78403D123690BB935461E46E38C9BB253B925
:2061600043464A4640212046FFF73EFF50B9202384F8413007E043464A4680212046FFF7D6
:2061800033FF10B10320BDE8F88322684EB935F8023BC3F308035360E18C013989B2E18413
:2061A000DBE716F8013BF6E70220ECE70120EAE790F84130202B10D189B182B1C284828431
:2061C0000023212201620168436480F84120CA68184642F08002CA607047022070470120EE
:2061E000704708B50023406AC385C38401F056F808BD704790F8423007B5222B42D1816815
:206200000268B1F5805F836A3FD1016900293FD15268C2F3080223F8022B8362C38D013BBD
:206220009BB2C385002B2DD10268D16821F02001D160D16821F48071D160516921F001015D
:206240005161202280F842204363026B012A026828D1036302F10C0353E8003F23F01003C7
:2062600002F10C0C4CE800310029F3D11368DB0605D501911368019353680193019B818DF1
:20628000FFF7B7FF03B05DF804FB39B9016929B95268D2B21A70836A0133BEE7526802F0D3
:2062A0007F02F7E700F0F4FFECE70000036873B51A6804461607D9685D690AD1960640F19E
:2062C0008B808D0640F1888002B0BDE87040FFF791BF15F001054BD012F0010F02F0040369
:2062E00063D11BB1636C43F002036364930749D5636C12F0080F43F00403636403D0636C8D
:2063000043F008036364636C002B5FD0920604D58B0602D52046FFF76DFF266820467369DE
:20632000626C03F0400302F0080253EA02054FD0FFF7F2FD73695E0645D5226802F1140327
:2063400053E8003F23F04003143242E800310029F3D1E06B002836D0894B4363FDF722FCDA
:20636000002833D0E06B436B02B0BDE87040184711F4907F30D012F0010F02F0040307D19C
:2063800090070DD41007BED501F020032B43B5E7CE050FD4002BF3D19607F3D5002DA7D10E
:2063A0001507B0D511F0200FA8E7C80502D4002B98D1F1E7636C560743F001036364EBD584
:2063C000002DDDD08EE7204600F068FF02B070BD00F064FF6564F9E7206B012840F09480DE
:2063E000D50640F19180C80640F18E80002201921A6801925A680192019A5A6952064DD57C
:20640000E16B0A68526892B2002ADFD0A08D9042DCD9E2858A69202A36D003F10C0252E84D
:20642000002F22F4807203F10C0040E800210029F3D103F1140252E8002F22F0010203F173
:20644000140040E800210029F3D103F1140252E8002F22F0400203F1140040E800210029B1
:20646000F3D1202284F84220216303F10C0252E8002F22F0100203F10C0040E800210029B3
:20648000F3D1E06BFDF76EFB02236363E38DA18DC91A89B22046FFF7ACFE97E7E28DE08D89
:2064A000A18D80B292B2002890D0891A89B200298CD003F10C0252E8002F22F4907203F1D6
:2064C0000C0545E800200028F3D103F1140252E8002F22F0010203F1140545E80020002868
:2064E000F3D1202284F84220206303F10C0252E8002F22F0100203F10C0545E8002000282C
:20650000F3D102236363C5E7160628D50D0626D594F84120212A7FF459AFA168226AB1F50B
:20652000805F17D12169A9B932F8021BC1F3080159602262E28C013A92B2E284002A7FF477
:2065400045AFDA6822F08002DA60DA6842F04002DA603BE7511C216212785A60EAE75006CA
:206560007FF534AF4A067FF531AFDA68204622F04002DA60202384F8413000F08CFE25E734
:20658000E361000890F84030012B11D02423026880F84130D36823F00C0343F00803D36042
:2065A000202380F84130002380F84030184670470220704790F84030012B11D02423026800
:2065C00080F84130D36823F00C0343F00403D360202380F84130002380F8403018467047BC
:2065E0000220704790F8412090F84200104370470023C285436422238285026980F8423053
:20660000816203681AB1DA6842F48072DA605A69002042F001025A61DA6842F02002DA601A
:20662000704770B490F84260202E06D141B13AB10024046370BCFFF7DBBF022070BC704707
:206640000120FBE786B0042841D8DFE800F003101C2834001F4B20489A6942F004029A6172
:206660009B6903F004030193019B06B07047194B1A489A6942F008029A619B6903F008037D
:206680000293029BF1E7134B15489A6942F010029A619B6903F010030393039BE5E70D4B91
:2066A00010489A6942F020029A619B6903F020030493049BD9E7074B0B489A6942F0400204
:2066C0009A619B6903F040030593059BCDE70020CBE700BF0010024000080140000C014020
:2066E000001001400014014000180140FDF79AB9704708B5FDF78AF9FDF71FFAFFF7F8FF6F
:2067000008BD70470F4B84B0DA6942F08052DA61DA6902F080520192019A9A6942F0010280
:206720009A619A6902F001020292029A5A6942F040025A615B6903F040030393039B04B062
:20674000704700BF001002400C4BD3F8FC20D2015EBFD3F8FC2042F08072C3F8FC2000223F
:20676000074B5A601A6842F001021A6000BF00BF00BF5868B0FA80F04009704700ED00E0F8
:20678000001000E008B5FFF7BDFFFFF7DDFFFDF72BF9FFF7B6FF00F09BFFBDE80840014845
:2067A000FDF7D0B9280000207B4B82B09A69013842F001029A619B6903F001030193019B85
:2067C00023282CD8DFE810F024002D0034003B00400047004C00530058005F0068006D0031
:2067E00074007D008200890092009B00A000A700B000B500BC002B002B002B00C100C800FE
:206800002B002B002B002B00CD00D200D900E000624A536843F0E06343F00103536002B0FB
:2068200070475E4A536823F0010343F0E063F5E75A4A536843F0E06343F00203EEE7574A52
:20684000536823F00203F0E7544A536843F0E06343F00403E2E7514A536823F00403E4E781
:206860004E4A536843F0E06343F00803D6E74B4A536823F00803D8E7484A536843F0E06364
:2068800043F03003CAE7454A536823F0300343F0E06343F01003C1E7404A536823F0300362
:2068A000C3E73E4A536843F0E06343F0C003B5E73A4A536823F0C00343F0E06343F04003E2
:2068C000ACE7364A536823F0C003AEE7334A536843F0E06343F44073A0E7304A536823F414
:2068E000407343F0E06343F4007397E72B4A536823F4407343F0E06343F480738EE7274AC7
:20690000536823F4407390E7244A536843F0E06343F4406382E7214A536823F4406343F086
